:020000040000FA
:020000001128C5
:0800080052290F3982073F3431
:1000100006345B344F3466346D347D3407347F34BA
:100020006F348316031364308F0083160317043074
:100030008800890183160313043085008316031397
:1000400001308600831603138801831603130713F8
:10005000871783120313850183120313860183120A
:1000600003138801831603139F018312031349307E
:100070009F00831603130530810083120313B230EF
:100080008100831603131930990083120313803003
:100090009800831603132430980083120313A001E1
:1000A000A101F501F601F701F801F901FA01FB01DF
:1000B000FC01FD01FE01FF01F2018A01A320831270
:1000C0000313B0308B0079186328781863287020E8
:1000D0007E02031D6C2863287020FE00FF01632848
:1000E000831203139F149F1873281E08553C031C8A
:1000F000802883120313851505128512013008002C
:100100001E08AA3C031C8B288312031385110516B5
:10011000851202300800831203138511051285161B
:10012000033008007E08013C031D99281930FD00AA
:1001300008007E08023C031DA0283230FD000800A4
:100140004B30FD0008008A0175080520F300760891
:100150000520F4000800F801F901F501F601FC01A1
:10016000FB01FA01FF01FD01FE018312031386105A
:100170008312031388018312031305108510A32033
:1001800008009220F501F601FC01FB01FA01A32011
:100190004C30E4204930E4205330E4205430E42053
:1001A0004F30E4200D30E4200A30E42078140800B9
:1001B0008A017508303EE4207608303EE4200D3098
:1001C000E4200A30E4200800A10083160313981CE1
:1001D000E528831203132108990008007E08013CDA
:1001E000031DF5281021D82008007E08023C031DBD
:1001F000FC282621D82008003C21D82008007E08B1
:10020000013C031D06291B21D82008007E08023C62
:10021000031D0D293121D82008004721D8200800CE
:10022000A00102308A0020080022FF3903190800CB
:10023000E420A00A1329A00102308A0020084022ED
:10024000FF3903190800E420A00A1E29A00102308A
:100250008A0020088022FF3903190800E420A00A40
:100260002929A00102308A002008C022FF39031981
:100270000800E420A00A3429A00103308A002008E5
:100280000023FF3903190800E420A00A3F29A00138
:1002900003308A0020084023FF3903190800E420B6
:1002A000A00A4A29F000030EF1000A08F2008A01B0
:1002B000831203138B1C7529791861297818672913
:1002C0007129AB2083120313061C62297129F801DE
:1002D0007914831203138614EE2083120313061C71
:1002E0006D29831203138B10D6290B1DD629831277
:1002F0000313B23081008312031305108510F80830
:10030000031D8629F908031D862999297718912943
:1003100083120313730888008312031305147714E0
:100320009929831203137408880083120313851418
:100330007710F808031DA929F908031DA929FE084B
:100340000319A929FF0AC8307F02031DA929C1206A
:10035000D329781CD329FA0A04307A02031DB5295F
:10036000FA018312031302308606FB0A02307B0275
:10037000031DD329FB01FC0AF60A0A307602031D8D
:10038000C829F601F50A0A307502031DC829F501CE
:100390007D087C02031DD229F8017914831203130E
:1003A0008614FF20A320831203130B1172088A0006
:0A03B000710E8300F00E700E0900BC
:100400001F3982074A346F34763465346E342034B1
:100410007C34203450347234753465346234613441
:1004200020346134703472346F3462346134643433
:0A043000613420347C3420340034A1
:100480001F3982074A346F34763465346E34203431
:100490007C342034503472347534653462346134C1
:1004A00020346434653473346134703472346F349E
:1004B000623461346434613420347C342034003458
:100500003F3982074134643475346C3474346F3449
:1005100020346D34613479346F34723420347C3457
:10052000203450347234753465346234613420348C
:100530006134703472346F346234613464346134E1
:0805400020347C342034003427
:100580003F3982074134643475346C3474346F34C9
:1005900020346D34613479346F34723420347C34D7
:1005A000203450347234753465346234613420340C
:1005B0006434653473346134703472346F3462344B
:0E05C00061346434613420347C3420340034DF
:100600003F398207503461346334693465346E3461
:1006100074346534203441344334563420347C34CB
:10062000203450347234753465346234613420348B
:100630006134703472346F346234613464346134E0
:0806400020347C342034003426
:100680003F398207503461346334693465346E34E1
:1006900074346534203441344334563420347C344B
:1006A000203450347234753465346234613420340B
:1006B0006434653473346134703472346F3462344A
:0E06C00061346434613420347C3420340034DE
:02400E00D42FAD
:00000001FF
