:020000040000FA
:020000001128C5
:0800080055290F3982073F342E
:1000100006345B344F3466346D347D3407347F34BA
:100020006F348316031364308F0083160317043074
:100030008800890183160313043085008316031397
:1000400001308600831603138801831603130713F8
:10005000871783120313850183120313860183120A
:1000600003138801831603139F018312031349307E
:100070009F00831603130530810083120313B230EF
:100080008100831603131930990083120313803003
:100090009800831603132430980083120313A001E1
:1000A000A101A201F501F601F701F801F901FA0138
:1000B000FB01FC01FD01FE01FF01F2018A01A52007
:1000C00083120313B0308B007918642878186428E1
:1000D00072207E02031D6D2864287220FE00FF013D
:1000E000A2016428831203139F149F1875281E0809
:1000F000553C031C822883120313851505128512B3
:10010000013008001E08AA3C031C8D28831203132B
:10011000851105168512023008008312031385111C
:1001200005128516033008007E08013C031D9B283C
:100130001930FD0008007E08023C031DA228323061
:10014000FD0008004B30FD0008008A0175080520FD
:10015000F30076080520F4000800F801F901F50124
:10016000F601FC01FB01FA01FF01A201FD01FE0104
:10017000831203138610831203138801831203135F
:1001800005108510A52008009420F501F601FC015A
:10019000FB01FA01A5204C30E7204930E72053301D
:1001A000E7205430E7204F30E7200D30E7200A30B9
:1001B000E720781408008A017508303EE7207608A9
:1001C000303EE7200D30E7200A30E7200800A1008C
:1001D00083160313981CE82883120313210899003F
:1001E00008007E08013C031DF8281321DB200800CD
:1001F0007E08023C031DFF282921DB2008003F2147
:10020000DB2008007E08013C031D09291E21DB209C
:1002100008007E08023C031D10293421DB20080061
:100220004A21DB200800A00102308A0020080022B9
:10023000FF3903190800E720A00A1629A00102309F
:100240008A0020084022FF3903190800E720A00A8D
:100250002129A00102308A0020088022FF390319D9
:100260000800E720A00A2C29A00102308A002008FB
:10027000C022FF3903190800E720A00A3729A0018E
:1002800003308A0020080023FF3903190800E72003
:10029000A00A4229A00103308A0020084023FF3928
:1002A00003190800E720A00A4D29F000030EF10011
:1002B0000A08F2008A01831203138B1C782979182B
:1002C000642978186A297429AD2083120313061C47
:1002D00065297429F8017914831203138614F12017
:1002E00083120313061C7029831203138B10DF295A
:1002F0000B1DDF2983120313B23081008312031315
:1003000005108510F808031D8929F908031D89299E
:100310009C29771894298312031373088800831289
:100320000313051477149C2983120313740888009F
:100330008312031385147710F808031DB229F908F6
:10034000031DB229FE080319B229FF0AC8307F0233
:10035000031DB229FF01A20A03302202031DB229A4
:10036000C420DC29781CDC29FA0A04307A02031D37
:10037000BE29FA018312031302308606FB0A0230FB
:100380007B02031DDC29FB01FC0AF60A0A30760217
:10039000031DD129F601F50A0A307502031DD12982
:1003A000F5017D087C02031DDB29F8017914831215
:1003B000031386140221A520831203130B11720864
:0C03C0008A00710E8300F00E700E090020
:100400001F3982074A346F34763465346E342034B1
:100410007C34203450347234753465346234613441
:1004200020346134703472346F3462346134643433
:0A043000613420347C3420340034A1
:100480001F3982074A346F34763465346E34203431
:100490007C342034503472347534653462346134C1
:1004A00020346434653473346134703472346F349E
:1004B000623461346434613420347C342034003458
:100500003F3982074134643475346C3474346F3449
:1005100020346D34613479346F34723420347C3457
:10052000203450347234753465346234613420348C
:100530006134703472346F346234613464346134E1
:0805400020347C342034003427
:100580003F3982074134643475346C3474346F34C9
:1005900020346D34613479346F34723420347C34D7
:1005A000203450347234753465346234613420340C
:1005B0006434653473346134703472346F3462344B
:0E05C00061346434613420347C3420340034DF
:100600003F398207503461346334693465346E3461
:1006100074346534203441344334563420347C34CB
:10062000203450347234753465346234613420348B
:100630006134703472346F346234613464346134E0
:0806400020347C342034003426
:100680003F398207503461346334693465346E34E1
:1006900074346534203441344334563420347C344B
:1006A000203450347234753465346234613420340B
:1006B0006434653473346134703472346F3462344A
:0E06C00061346434613420347C3420340034DE
:02400E00D42FAD
:00000001FF
